:1000000000308A009B280000FF00030E8301A1003E
:100010000A08A0008A010408A2007708A300780853
:10002000A4007908A5007A08A600831383128C30F7
:100030008400801E1D288C1A2E2822088400230884
:10004000F7002408F8002508F9002608FA0020081F
:100050008A00210E8300FF0E7F0E09008A110A120A
:1000600046282930840083130008031945280130ED
:10007000F800F701F70B3A28F80B39284A30F70057
:10008000F70B40284328800B3728080083168C1272
:1000900083128C1E49281A08583C031D97280530E6
:1000A000A90031208C1E52281A08A7002708573CA7
:1000B000031D5E2806148610061586112708533C7A
:1000C000031D662806108614061186152708443C71
:1000D000031D6E2806148610061186152708413C5C
:1000E000031D762806108614061586112708433C42
:1000F000031D7E2806108610061186112708523C23
:10010000031D84280616861227084C3C031D8A28E6
:10011000061286162708463C031D9728061704304A
:10012000A800FA30A9003120A80B912806138C12E0
:100130008A110A121D2803081F39830067308316AD
:100140009900A230980090308312980083161F14F3
:100150009F141F159F11831309120030F80083129A
:1001600092000030831692001F149F141F159F11D8
:1001700083121F10F03097059D0590010030831603
:10018000860083128601C0308B0483168C16C62825
:0201900063000A
:02400E00393B3C
:00000001FF
;PIC16F877
;CRC=62D9  CREATED="24-Haz-18 23:16"
